{
  "_format": "hh-sol-artifact-1",
  "contractName": "Schnorr",
  "sourceName": "contracts/schnorr.sol",
  "abi": [
    {
      "inputs": [],
      "name": "generator",
      "outputs": [
        {
          "internalType": "uint256",
          "name": "",
          "type": "uint256"
        }
      ],
      "stateMutability": "view",
      "type": "function"
    },
    {
      "inputs": [
        {
          "internalType": "string",
          "name": "data",
          "type": "string"
        }
      ],
      "name": "hashModp",
      "outputs": [
        {
          "internalType": "uint256",
          "name": "",
          "type": "uint256"
        }
      ],
      "stateMutability": "view",
      "type": "function"
    },
    {
      "inputs": [
        {
          "internalType": "uint256",
          "name": "base",
          "type": "uint256"
        },
        {
          "internalType": "uint256",
          "name": "exponent",
          "type": "uint256"
        },
        {
          "internalType": "uint256",
          "name": "modulus",
          "type": "uint256"
        }
      ],
      "name": "modExp",
      "outputs": [
        {
          "internalType": "uint256",
          "name": "result",
          "type": "uint256"
        }
      ],
      "stateMutability": "pure",
      "type": "function"
    },
    {
      "inputs": [],
      "name": "primeOrder",
      "outputs": [
        {
          "internalType": "uint256",
          "name": "",
          "type": "uint256"
        }
      ],
      "stateMutability": "view",
      "type": "function"
    },
    {
      "inputs": [
        {
          "internalType": "uint256",
          "name": "A",
          "type": "uint256"
        },
        {
          "internalType": "uint256",
          "name": "R",
          "type": "uint256"
        },
        {
          "internalType": "uint256",
          "name": "z",
          "type": "uint256"
        }
      ],
      "name": "verifyProof",
      "outputs": [
        {
          "internalType": "bool",
          "name": "",
          "type": "bool"
        }
      ],
      "stateMutability": "view",
      "type": "function"
    }
  ],
  "bytecode": "0x60806040527f0800000000000011000000000000000000000000000000000000000000000001600055600760015534801561003957600080fd5b50610bce806100496000396000f3fe608060405234801561001057600080fd5b50600436106100575760003560e01c80632810b89b1461005c578063292b94211461008c5780633148f14f146100aa5780637afa1eed146100da578063a3f0344c146100f8575b600080fd5b61007660048036038101906100719190610652565b610128565b60405161008391906106c0565b60405180910390f35b610094610224565b6040516100a191906106ea565b60405180910390f35b6100c460048036038101906100bf9190610652565b61022d565b6040516100d191906106ea565b60405180910390f35b6100e2610271565b6040516100ef91906106ea565b60405180910390f35b610112600480360381019061010d919061084b565b61027b565b60405161011f91906106ea565b60405180910390f35b6000806101366001546102fb565b61013f866102fb565b604051602001610150929190610905565b60405160208183030381529060405290508061016b856102fb565b60405160200161017c929190610905565b604051602081830303815290604052905060006101988261027b565b905060006101ab6001548660005461022d565b9050600080546101be898560005461022d565b886101c99190610958565b6101d391906109c9565b90506102146040518060400160405280601081526020017f6d792076616c7565206220697320257300000000000000000000000000000000815250846103c9565b8082149450505050509392505050565b60008054905090565b6000600190505b600083111561026a5781848261024a9190610958565b61025491906109c9565b905060018361026391906109fa565b9250610234565b9392505050565b6000600154905090565b60008060028360405161028e9190610a75565b602060405180830381855afa1580156102ab573d6000803e3d6000fd5b5050506040513d601f19601f820116820180604052508101906102ce9190610ac2565b60001c9050600060016000546102e491906109fa565b826102ef91906109c9565b90508092505050919050565b60606000600161030a84610465565b01905060008167ffffffffffffffff81111561032957610328610720565b5b6040519080825280601f01601f19166020018201604052801561035b5781602001600182028036833780820191505090505b509050600082602001820190505b6001156103be578080600190039150507f3031323334353637383961626364656600000000000000000000000000000000600a86061a8153600a85816103b2576103b161099a565b5b04945060008503610369575b819350505050919050565b61046182826040516024016103df929190610b39565b6040516020818303038152906040527fb60e72cc000000000000000000000000000000000000000000000000000000007bffffffffffffffffffffffffffffffffffffffffffffffffffffffff19166020820180517bffffffffffffffffffffffffffffffffffffffffffffffffffffffff83818316178352505050506105b8565b5050565b600080600090507a184f03e93ff9f4daa797ed6e38ed64bf6a1f01000000000000000083106104c3577a184f03e93ff9f4daa797ed6e38ed64bf6a1f01000000000000000083816104b9576104b861099a565b5b0492506040810190505b6d04ee2d6d415b85acef81000000008310610500576d04ee2d6d415b85acef810000000083816104f6576104f561099a565b5b0492506020810190505b662386f26fc10000831061052f57662386f26fc1000083816105255761052461099a565b5b0492506010810190505b6305f5e1008310610558576305f5e100838161054e5761054d61099a565b5b0492506008810190505b612710831061057d5761271083816105735761057261099a565b5b0492506004810190505b606483106105a057606483816105965761059561099a565b5b0492506002810190505b600a83106105af576001810190505b80915050919050565b6105cf816105c76105d26105f3565b63ffffffff16565b50565b60006a636f6e736f6c652e6c6f679050600080835160208501845afa505050565b6105fe819050919050565b610606610b69565b565b6000604051905090565b600080fd5b600080fd5b6000819050919050565b61062f8161061c565b811461063a57600080fd5b50565b60008135905061064c81610626565b92915050565b60008060006060848603121561066b5761066a610612565b5b60006106798682870161063d565b935050602061068a8682870161063d565b925050604061069b8682870161063d565b9150509250925092565b60008115159050919050565b6106ba816106a5565b82525050565b60006020820190506106d560008301846106b1565b92915050565b6106e48161061c565b82525050565b60006020820190506106ff60008301846106db565b92915050565b600080fd5b600080fd5b6000601f19601f8301169050919050565b7f4e487b7100000000000000000000000000000000000000000000000000000000600052604160045260246000fd5b6107588261070f565b810181811067ffffffffffffffff8211171561077757610776610720565b5b80604052505050565b600061078a610608565b9050610796828261074f565b919050565b600067ffffffffffffffff8211156107b6576107b5610720565b5b6107bf8261070f565b9050602081019050919050565b82818337600083830152505050565b60006107ee6107e98461079b565b610780565b90508281526020810184848401111561080a5761080961070a565b5b6108158482856107cc565b509392505050565b600082601f83011261083257610831610705565b5b81356108428482602086016107db565b91505092915050565b60006020828403121561086157610860610612565b5b600082013567ffffffffffffffff81111561087f5761087e610617565b5b61088b8482850161081d565b91505092915050565b600081519050919050565b600081905092915050565b60005b838110156108c85780820151818401526020810190506108ad565b60008484015250505050565b60006108df82610894565b6108e9818561089f565b93506108f98185602086016108aa565b80840191505092915050565b600061091182856108d4565b915061091d82846108d4565b91508190509392505050565b7f4e487b7100000000000000000000000000000000000000000000000000000000600052601160045260246000fd5b60006109638261061c565b915061096e8361061c565b925082820261097c8161061c565b9150828204841483151761099357610992610929565b5b5092915050565b7f4e487b7100000000000000000000000000000000000000000000000000000000600052601260045260246000fd5b60006109d48261061c565b91506109df8361061c565b9250826109ef576109ee61099a565b5b828206905092915050565b6000610a058261061c565b9150610a108361061c565b9250828203905081811115610a2857610a27610929565b5b92915050565b600081519050919050565b600081905092915050565b6000610a4f82610a2e565b610a598185610a39565b9350610a698185602086016108aa565b80840191505092915050565b6000610a818284610a44565b915081905092915050565b6000819050919050565b610a9f81610a8c565b8114610aaa57600080fd5b50565b600081519050610abc81610a96565b92915050565b600060208284031215610ad857610ad7610612565b5b6000610ae684828501610aad565b91505092915050565b600082825260208201905092915050565b6000610b0b82610894565b610b158185610aef565b9350610b258185602086016108aa565b610b2e8161070f565b840191505092915050565b60006040820190508181036000830152610b538185610b00565b9050610b6260208301846106db565b9392505050565b7f4e487b7100000000000000000000000000000000000000000000000000000000600052605160045260246000fdfea26469706673582212204b9efc1390e8db3714a20354041d549d2cccf010d61505d30da7c37617e753e864736f6c63430008140033",
  "linkReferences": {},
  "deployedLinkReferences": {}
}