{
  "_format": "hh-sol-artifact-1",
  "contractName": "Schnorr",
  "sourceName": "contracts/schnorr.sol",
  "abi": [
    {
      "inputs": [],
      "name": "primeOrder",
      "outputs": [
        {
          "internalType": "uint256",
          "name": "",
          "type": "uint256"
        }
      ],
      "stateMutability": "view",
      "type": "function"
    }
  ],
  "bytecode": "0x60806040527f0800000000000011000000000000000000000000000000000000000000000001600055600760015534801561003957600080fd5b5060b6806100486000396000f3fe6080604052348015600f57600080fd5b506004361060285760003560e01c8063292b942114602d575b600080fd5b60336047565b604051603e91906067565b60405180910390f35b60008054905090565b6000819050919050565b6061816050565b82525050565b6000602082019050607a6000830184605a565b9291505056fea2646970667358221220f76d2ebeab93f234b0bb90d5c86712279d42d1fa4cd44c9d590cf939931f35d564736f6c63430008130033",
  "linkReferences": {},
  "deployedLinkReferences": {}
}