{
  "_format": "hh-sol-artifact-1",
  "contractName": "Schnorr",
  "sourceName": "contracts/schnorr.sol",
  "abi": [
    {
      "anonymous": false,
      "inputs": [
        {
          "indexed": false,
          "internalType": "uint256",
          "name": "",
          "type": "uint256"
        }
      ],
      "name": "modularExpResult",
      "type": "event"
    },
    {
      "anonymous": false,
      "inputs": [
        {
          "indexed": false,
          "internalType": "bool",
          "name": "",
          "type": "bool"
        }
      ],
      "name": "proofIsValid",
      "type": "event"
    },
    {
      "inputs": [],
      "name": "generator",
      "outputs": [
        {
          "internalType": "uint256",
          "name": "",
          "type": "uint256"
        }
      ],
      "stateMutability": "view",
      "type": "function"
    },
    {
      "inputs": [
        {
          "internalType": "string",
          "name": "data",
          "type": "string"
        }
      ],
      "name": "hashModp",
      "outputs": [
        {
          "internalType": "uint256",
          "name": "",
          "type": "uint256"
        }
      ],
      "stateMutability": "view",
      "type": "function"
    },
    {
      "inputs": [
        {
          "internalType": "uint256",
          "name": "_b",
          "type": "uint256"
        },
        {
          "internalType": "uint256",
          "name": "_e",
          "type": "uint256"
        },
        {
          "internalType": "uint256",
          "name": "_m",
          "type": "uint256"
        }
      ],
      "name": "modExp",
      "outputs": [
        {
          "internalType": "uint256",
          "name": "result",
          "type": "uint256"
        }
      ],
      "stateMutability": "nonpayable",
      "type": "function"
    },
    {
      "inputs": [],
      "name": "primeOrder",
      "outputs": [
        {
          "internalType": "uint256",
          "name": "",
          "type": "uint256"
        }
      ],
      "stateMutability": "view",
      "type": "function"
    },
    {
      "inputs": [
        {
          "internalType": "uint256",
          "name": "A",
          "type": "uint256"
        },
        {
          "internalType": "uint256",
          "name": "R",
          "type": "uint256"
        },
        {
          "internalType": "uint256",
          "name": "z",
          "type": "uint256"
        }
      ],
      "name": "verifyProof",
      "outputs": [
        {
          "internalType": "bool",
          "name": "",
          "type": "bool"
        }
      ],
      "stateMutability": "nonpayable",
      "type": "function"
    }
  ],
  "bytecode": "0x60806040527f0800000000000011000000000000000000000000000000000000000000000001600055600760015534801561003957600080fd5b50610c29806100496000396000f3fe608060405234801561001057600080fd5b50600436106100575760003560e01c80632810b89b1461005c578063292b94211461008c5780633148f14f146100aa5780637afa1eed146100da578063a3f0344c146100f8575b600080fd5b610076600480360381019061007191906106ef565b610128565b604051610083919061075d565b60405180910390f35b61009461027f565b6040516100a19190610787565b60405180910390f35b6100c460048036038101906100bf91906106ef565b610288565b6040516100d19190610787565b60405180910390f35b6100e261030e565b6040516100ef9190610787565b60405180910390f35b610112600480360381019061010d91906108e8565b610318565b60405161011f9190610787565b60405180910390f35b6000805a905061016d6040518060400160405280600f81526020017f7374617274696e6720676173202573000000000000000000000000000000000081525082610398565b600061017a600154610434565b61018387610434565b6040516020016101949291906109a2565b6040516020818303038152906040529050806101af86610434565b6040516020016101c09291906109a2565b604051602081830303815290604052905060006101dc82610318565b905060006101ef60015487600054610288565b905060006102008984600054610288565b90506000805480610214576102136109c6565b5b828a09905060005a90506000818861022c9190610a24565b9050600083861490507f45068fbf4d3e7c5c8c3429cbf5b5684303b20e450fe82ed09bd18ec1e1de8e2881604051610264919061075d565b60405180910390a18099505050505050505050509392505050565b60008054905090565b600060405160208152602080820152602060408201528460608201528360808201528260a082015260c05160208160c08460006005600019f16102ca57600080fd5b8051925050507f6c075076a915b65c33f0c5c7bd72e32b1493bb9e650b84859d82fc8df94158ea816040516102ff9190610787565b60405180910390a19392505050565b6000600154905090565b60008060028360405161032b9190610a9f565b602060405180830381855afa158015610348573d6000803e3d6000fd5b5050506040513d601f19601f8201168201806040525081019061036b9190610aec565b60001c9050600060016000546103819190610a24565b8261038c9190610b19565b90508092505050919050565b61043082826040516024016103ae929190610b94565b6040516020818303038152906040527fb60e72cc000000000000000000000000000000000000000000000000000000007bffffffffffffffffffffffffffffffffffffffffffffffffffffffff19166020820180517bffffffffffffffffffffffffffffffffffffffffffffffffffffffff8381831617835250505050610502565b5050565b6060600060016104438461051c565b01905060008167ffffffffffffffff811115610462576104616107bd565b5b6040519080825280601f01601f1916602001820160405280156104945781602001600182028036833780820191505090505b509050600082602001820190505b6001156104f7578080600190039150507f3031323334353637383961626364656600000000000000000000000000000000600a86061a8153600a85816104eb576104ea6109c6565b5b049450600085036104a2575b819350505050919050565b6105198161051161066f610690565b63ffffffff16565b50565b600080600090507a184f03e93ff9f4daa797ed6e38ed64bf6a1f010000000000000000831061057a577a184f03e93ff9f4daa797ed6e38ed64bf6a1f01000000000000000083816105705761056f6109c6565b5b0492506040810190505b6d04ee2d6d415b85acef810000000083106105b7576d04ee2d6d415b85acef810000000083816105ad576105ac6109c6565b5b0492506020810190505b662386f26fc1000083106105e657662386f26fc1000083816105dc576105db6109c6565b5b0492506010810190505b6305f5e100831061060f576305f5e1008381610605576106046109c6565b5b0492506008810190505b612710831061063457612710838161062a576106296109c6565b5b0492506004810190505b60648310610657576064838161064d5761064c6109c6565b5b0492506002810190505b600a8310610666576001810190505b80915050919050565b60006a636f6e736f6c652e6c6f679050600080835160208501845afa505050565b61069b819050919050565b6106a3610bc4565b565b6000604051905090565b600080fd5b600080fd5b6000819050919050565b6106cc816106b9565b81146106d757600080fd5b50565b6000813590506106e9816106c3565b92915050565b600080600060608486031215610708576107076106af565b5b6000610716868287016106da565b9350506020610727868287016106da565b9250506040610738868287016106da565b9150509250925092565b60008115159050919050565b61075781610742565b82525050565b6000602082019050610772600083018461074e565b92915050565b610781816106b9565b82525050565b600060208201905061079c6000830184610778565b92915050565b600080fd5b600080fd5b6000601f19601f8301169050919050565b7f4e487b7100000000000000000000000000000000000000000000000000000000600052604160045260246000fd5b6107f5826107ac565b810181811067ffffffffffffffff82111715610814576108136107bd565b5b80604052505050565b60006108276106a5565b905061083382826107ec565b919050565b600067ffffffffffffffff821115610853576108526107bd565b5b61085c826107ac565b9050602081019050919050565b82818337600083830152505050565b600061088b61088684610838565b61081d565b9050828152602081018484840111156108a7576108a66107a7565b5b6108b2848285610869565b509392505050565b600082601f8301126108cf576108ce6107a2565b5b81356108df848260208601610878565b91505092915050565b6000602082840312156108fe576108fd6106af565b5b600082013567ffffffffffffffff81111561091c5761091b6106b4565b5b610928848285016108ba565b91505092915050565b600081519050919050565b600081905092915050565b60005b8381101561096557808201518184015260208101905061094a565b60008484015250505050565b600061097c82610931565b610986818561093c565b9350610996818560208601610947565b80840191505092915050565b60006109ae8285610971565b91506109ba8284610971565b91508190509392505050565b7f4e487b7100000000000000000000000000000000000000000000000000000000600052601260045260246000fd5b7f4e487b7100000000000000000000000000000000000000000000000000000000600052601160045260246000fd5b6000610a2f826106b9565b9150610a3a836106b9565b9250828203905081811115610a5257610a516109f5565b5b92915050565b600081519050919050565b600081905092915050565b6000610a7982610a58565b610a838185610a63565b9350610a93818560208601610947565b80840191505092915050565b6000610aab8284610a6e565b915081905092915050565b6000819050919050565b610ac981610ab6565b8114610ad457600080fd5b50565b600081519050610ae681610ac0565b92915050565b600060208284031215610b0257610b016106af565b5b6000610b1084828501610ad7565b91505092915050565b6000610b24826106b9565b9150610b2f836106b9565b925082610b3f57610b3e6109c6565b5b828206905092915050565b600082825260208201905092915050565b6000610b6682610931565b610b708185610b4a565b9350610b80818560208601610947565b610b89816107ac565b840191505092915050565b60006040820190508181036000830152610bae8185610b5b565b9050610bbd6020830184610778565b9392505050565b7f4e487b7100000000000000000000000000000000000000000000000000000000600052605160045260246000fdfea264697066735822122071994d2ee4a0203628d4ae3ee76f5d3f662682d92f7514a43680d45819dbc8d664736f6c63430008140033",
  "linkReferences": {},
  "deployedLinkReferences": {}
}